S01500007374616E356669726D776172652E73726563C7
S113000074C2000093C2000091C200000C94BC0BA7
S11300108DC200000C94AE0F0C94630F87C20000D5
S11300200C94F50B83C200000C94B3187FC200003B
S11300307DC200007BC2000079C2000077C20000CC
S113004075C2000073C2000071C200006FC20000DC
S11300506DC200006BC2000069C2000067C20000EC
S113006065C200000C94320C61C200005FC2000043
S11300705DC200005BC2000059C2000057C200000C
S113008055C2000053C2000051C200004FC200001C
S11300904DC200004BC2000049C2000047C200002C
S11300A045C2000043C200000C945A0B3FC200003A
S11300B03DC200003BC2000039C2000037C200004C
S11300C035C2000033C2000031C200002FC200005C
S11300D02DC200002BC2000029C2000027C200006C
S11300E025C20000330E390E3F0E450E4B0E510E45
S11300F0530E550E690E6F0E750E7B0E810E870E14
S1130100890E8B0E6E616E00696E660000407A1077
S1130110F35A00A0724E18090010A5D4E80000E8B4
S11301207648170000E40B54020000CA9A3B000012
S113013000E1F505000080969800000040420F00A1
S11301400000A08601000000102700000000E80362
S1130150000000006400000000000A00000000002D
S11301600100000000002C76D888DC674F0823DFEC
S1130170C1DFAE59E1B1B796E5E3E453C63AE651BF
S1130180997696E8E6C28426EB898C9B62ED407CE6
S11301906FFCEFBC9C9F40F2BAA56FA5F490055A82
S11301A02AF75C936B6CF9676DC11BFCE0E40D47A7
S11301B0FEF520E6B500D0ED902E030094357705CA
S11301C00080841E080000204E0A000000C80C3382
S11301D03333330F986E12831141EF8D2114893B11
S11301E0E65516CFFEE6DB18D1844B381BF77C1D91
S11301F0901DA4BBE424203284725E228100C9F1E4
S113020024ECA1E53D27D412970E4A04D81206091E
S11302104804DC124A054604E0129B034404E41239
S11302202C034204E81200004004E81200003E04DB
S1130230E81200003C04E81200003A04E81200004E
S11302403804E81200003604E81200003404E8120E
S113025000003204EE122504FD03F212AA04C303C3
S1130260F6127605B003FA1262069103FE12050631
S113027082030213E0067203E81200007003E8121E
S113028000006E03E81200006C03E81200006A0329
S1130290E81200006803E81200006603E812000098
S11302A06403E81200006203E81200006003E8122D
S11302B000005E03E81200005C03E81200005A0329
S11302C0E81200005803E81200005603E812000088
S11302D05403E81200005203E81200005003E8122D
S11302E000004E03E81200004C03E81200004A0329
S11302F0E81200004803E81200004603E812000078
S11303004403E81200004203E81200004003E8122C
S113031000003E03E81200003C03E81200003A0328
S1130320E81200003803E812000036030613000048
S11303303203656E64006300620061006300620062
S1130340610063006200610061006300620061009B
S11303506300620061006300620061006100630089
S1130360620061006300620061006300620061007A
S11303706100636C6F636B20616C61726D206F66EA
S11303806600636C6F636B20616C61726D206F6ECD
S113039000636C6F636B20616C61726D31207365F7
S11303A074206173203C68686D6D737344443E002F
S11303B0636C6F636B20616C61726D312070726964
S11303C06E7400636C6F636B206461746520736585
S11303D074202D20736574732074686520636C6FBA
S11303E0636B20646174652066726F6D2073747230
S11303F0696E67202264646D6D79792200636C6F85
S1130400636B2074696D6520736574202D2073659A
S1130410747320746865205254432066726F6D2093
S11304206120737472696E67202268686D6D7373DE
S113043022006300620061006100630062006100E9
S11304406300620061006300620068656C7074653B
S113045078742030206973206865726520666F7235
S11304602074657374696E67002D2D2D2D2D2D2D2F
S11304702D2D2D2D204D61696E204D656E75202D1D
S11304802D2D2D2D2D2D2D2D2D2D0D0A28312920ED
S11304904D616E75616C206D6F64650D0A2832299B
S11304A02054657374206D6F64650D0A2833292008
S11304B053616D706C6520636F6C6C656374696FF8
S11304C06E206D6F64650D0A28342920436C6561C4
S11304D06E206D6F64650D0A2835292053657420DC
S11304E0766F6C756D650D0A000011241FBECFEF89
S11304F0D1E2DEBFCDBF00E00CBF15E1A0E0B2E069
S1130500E6EBF8E400E00BBF02C007900D92A43BB9
S1130510B107D9F726E1A4EBB5E101C01D92A537D7
S1130520B207E1F70E94FC0F0C94592469CD8AE1CB
S113053092E00E948F214FEF50E060E081E00E9442
S113054035132FEF83E294EF215080409040E1F780
S113055000C0000081E00E9453138EE292E00E94EA
S11305608F212FEF83E294EF215080409040E1F7F8
S113057000C0000008958DE392E00E948F214FEFA8
S113058050E061E081E00E9435132FEF83E294EFA5
S1130590215080409040E1F700C0000081E00E94BB
S11305A053138EE292E00E948F212FEF83E294EFA7
S11305B0215080409040E1F700C000000895982F3A
S11305C092959F70990F292F220F220F920F8F70EF
S11305D0890F08959DEC899F912D112496959695E8
S11305E0969520E1929FA0011124990F292F220FA3
S11305F0220F920F891B8F70842B0895CF93C82FDD
S113060053D580ED68D58C2F66D54ED581ED63D555
S11306105BD5C82F4ED58C2FCF910895CF93DF9300
S1130620D82FC62F41D580ED56D58D2F54D58C2F7C
S113063052D53FD5DF91CF9108958BE492E09CD5BC
S11306406F98779A65E08EE0E9DF60E08FE0E6DF9F
S113065083E692E091C50895AF92BF92CF92DF9264
S1130660EF92FF920F931F93CF93DF93CDB7DEB733
S113067029970FB6F894DEBF0FBECDBF80E0BEDF72
S11306809EDF182F81E0BADF9ADFF82E82E0B6DF12
S11306908F7395DFC82E1F921F9304E816E01F93F3
S11306A00F931F920F2EF3E0DF2EF02DDF92CE0179
S11306B001965C019F938F930E94F0211F92FF92F9
S11306C01F930F931F92DF927E0194E0E90EF11CB9
S11306D0FF92EF920E94F0211F92CF921F930F93EB
S11306E01F92DF928E01095F1F4F1F930F930E9489
S11306F0F021BF92AF92FF92EF921F930F938CE77A
S113070092E09F938F930E947C210FB6F894DEBFF2
S11307100FBECDBF29960FB6F894DEBF0FBECDBF76
S1130720DF91CF911F910F91FF90EF90DF90CF90C9
S1130730BF90AF900895AF92BF92CF92DF92EF92A5
S1130740FF920F931F93CF93DF93CDB7DEB7299713
S11307500FB6F894DEBF0FBECDBF86E04FDF2FDFAC
S1130760182F85E04BDF8F712ADFF82E84E046DFF7
S11307708F7325DFA82E83E041DF1F921F9304E8C7
S113078016E01F930F931F9285E08F93CE0101967D
S11307906C019F938F930E94F0211F92FF921F93ED
S11307A00F931F920F2EF3E0BF2EF02DBF927E0108
S11307B094E0E90EF11CFF92EF920E94F0211F9247
S11307C0AF921F930F931F92BF928E01095F1F4F29
S11307D01F930F930E94F021DF92CF92FF92EF922A
S11307E01F930F938FE892E09F938F930E947C2135
S11307F00FB6F894DEBF0FBECDBF29960FB6F8949E
S1130800DEBF0FBECDBFDF91CF911F910F91FF903F
S1130810EF90DF90CF90BF90AF900895CF93DF9388
S1130820C82FD62F842FD6DE682F80E0F7DE8D2FD9
S1130830D1DE682F81E0F2DE8C2FCCDE682F6F735F
S113084082E0ECDEDF91CF9108950F931F93CF9355
S1130850DF93EC01FC0101900020E9F73197E81BDC
S1130860F90BFF93EF93DF93CF9382EA92E09F9388
S11308708F930E947C21FE0101900020E9F7CF01B3
S113088007970F900F900F900F900F900F908C1769
S11308909D0709F03DC083ED92E00E948F211881ED
S11308A0110F1056812F880F880F180F89818053DC
S11308B0180F0A81000F0056802F880F880F080F29
S11308C08B818053080F8C81880F8056982F990F45
S11308D0990F980F8D818053C92FC80F1F92CF9302
S11308E01F920F931F921F938CE093E09F938F931B
S11308F00E947C214C2F602F812F90DFADDE8DB7BD
S11309009EB708960FB6F8949EBF0FBE8DBF08C061
S113091089E293E09F938F930E947C210F900F9024
S1130920DF91CF911F910F910895CF93DF93D62F2D
S1130930C42F50DE682F84E071DE8D2F4BDE682FCC
S113094085E06CDE8C2F46DE682F86E067DEDF9163
S1130950CF9108950F931F93CF93DF93EC01FC0184
S113096001900020E9F73197E81BF90BFF93EF930F
S1130970DF93CF9382EA92E09F938F930E947C212E
S1130980FE0101900020E9F7CF0107970F900F9027
S11309900F900F900F900F908C179D0709F03DC09A
S11309A086E893E00E948F211881110F1056812F41
S11309B0880F880F180F89818053180F0A81000F40
S11309C00056802F880F880F080F8B818053080FE3
S11309D08C81880F8056982F990F990F980F8D81CD
S11309E08053C92FC80F1F92CF931F920F931F924A
S11309F01F938FEB93E09F938F930E947C214C2F46
S1130A00602F812F92DF97DE8DB79EB708960FB6C1
S1130A10F8949EBF0FBE8DBF08C08CED93E09F93EA
S1130A208F930E947C210F900F90DF91CF911F91A3
S1130A300F910895CF92DF92EF92FF92CF93DF93BD
S1130A4082E1DCDDC82F81E1D9DDD82FC295C695BE
S1130A50C695C3706C2F70E080E090E00E94D319BB
S1130A6020E030E040E85EE30E94891A6B017C01DB
S1130A706D2FDD0F770B880B990B0E94D519A701F9
S1130A8096010E940319DF91CF91FF90EF90DF90C0
S1130A90CF9008950F931F93CF93DF9300D000D08E
S1130AA0CDB7DEB769E374E080E090E00E947D1585
S1130AB0C1DF8E010F5F1F4F21E044E00E94D51E6D
S1130AC0B80180E090E00E947D156AE87FE080E054
S1130AD090E00E947D1526960FB6F894DEBF0FBEF7
S1130AE0CDBFDF91CF911F910F9108958F929F9267
S1130AF0AF92BF92CF92DF92EF92FF920F931F9328
S1130B00CF93DF93CDB7DEB72C970FB6F894DEBF43
S1130B100FBECDBF87E072DD8F7751DD182F88E0DF
S1130B206DDD8F774CDDE82E89E068DD8F7347DD5E
S1130B30F82E8AE063DD8F7342DDA82E1F921F9387
S1130B4004E816E01F930F931F920F2EF3E0BF2EBD
S1130B50F02DBF92CE0101964C019F938F930E947A
S1130B60F0211F92EF921F930F931F92BF926E0179
S1130B7094E0C90ED11CDF92CF920E94F0211F9203
S1130B80FF921F930F931F92BF927E0187E0E80E9E
S1130B90F11CFF92EF920E94F0211F92AF921F93DB
S1130BA00F931F92BF928E01065F1F4F1F930F93E7
S1130BB00E94F0210FB6F894DEBF0FBECDBF1F9385
S1130BC00F939F928F92DF92CF92FF92EF9282E5E2
S1130BD094E09F938F930E947C210FB6F894DEBF1C
S1130BE00FBECDBF2C960FB6F894DEBF0FBECDBF9F
S1130BF0DF91CF911F910F91FF90EF90DF90CF90F5
S1130C00BF90AF909F908F9008958EE0F7DC682F8F
S1130C1061608EE003DD8EE0F1DC81701F928F93C2
S1130C208EE295E09F938F930E947C216FE375E0A1
S1130C3080E090E00E947D150F900F900F900F9030
S1130C400895CF92DF92EF92FF920F931F93CF9369
S1130C50DF93E82ED62EC42EF22E87E0CFDC082FA9
S1130C6088E0CCDC182F89E0C9DCD82F8AE0C6DC08
S1130C70C82F8C2DAFDC0078602F682B87E0CEDC8A
S1130C808D2DA8DC1078612F682B88E0C7DC8E2DB1
S1130C90A1DC8F73D078682F6D2B89E0BFDC8F2D9A
S1130CA099DC8F73C07C682F6C2B8AE0B7DC1EDF65
S1130CB0ACDFDF91CF911F910F91FF90EF90DF9008
S1130CC0CF900895FF920F931F93CF93DF93EC017E
S1130CD0FC0101900020E9F73197E81BF90BFF9321
S1130CE0EF93DF93CF9382EA92E09F938F930E94D6
S1130CF07C21FE0101900020E9F7CF0109970F90B4
S1130D000F900F900F900F900F908C179D0709F084
S1130D1049C08EE495E00E948F211881110F10566E
S1130D20812F880F880F180F89818053180F0A812B
S1130D30000F0056802F880F880F080F8B81805377
S1130D40080F8C81880F8056F82EFF0CFF0CF80ECC
S1130D508D818053F80E8E81880F8056982F990FBD
S1130D60990F980F8F818053C92FC80F1F92CF936B
S1130D701F92FF921F920F931F921F9383EA95E095
S1130D809F938F930E947C212C2F4F2D602F812FB6
S1130D9058DF8DB79EB70A960FB6F8949EBF0FBE64
S1130DA08DBF08C083EE95E09F938F930E947C21B2
S1130DB00F900F90DF91CF911F910F91FF900895A5
S1130DC08EE01CDC682F6E7F8EE028DC8EE016DC63
S1130DD081701F928F938EE295E09F938F930E9470
S1130DE07C216AE476E080E090E00E947D150F901B
S1130DF00F900F900F9008959F92AF92BF92CF9251
S1130E00DF92EF92FF920F931F93CF93DF93CDB7AF
S1130E10DEB762970FB6F894DEBF0FBECDBF86E093
S1130E20EDDBCDDBC82E85E0E9DB8F71C8DBD82E86
S1130E3084E0E4DB8F73C3DBE82E83E0DFDB80E058
S1130E40DDDBBDDB982E81E0D9DBB9DBA82E82E0A7
S1130E50D5DB8F73B4DBB82E1F929F9204E816E0A3
S1130E601F930F931F920F2EF3E0FF2EF02DFF928E
S1130E70CE0101969F938F930E94F0211F92AF920F
S1130E801F930F931F92FF92CE0104969F938F930B
S1130E900E94F0211F92BF921F930F931F92FF9203
S1130EA0CE0107969F938F930E94F0211F92CF92B9
S1130EB01F930F931F9285E08F93CE010A969F9301
S1130EC08F930E94F0210FB6F894DEBF0FBECDBF02
S1130ED01F92DF921F930F931F92FF92CE010D96E4
S1130EE09F938F930E94F0211F92EF921F930F9371
S1130EF01F92FF92CE0140969F938F930E94F02100
S1130F001F929F921F92AF921F92BF921F92CF92F5
S1130F101F92DF921F92EF928FE696E09F938F933A
S1130F201F9280E18F9389E896E09F938F930E94AC
S1130F30F0210FB6F894DEBF0FBECDBF89E896E06E
S1130F4062960FB6F894DEBF0FBECDBFDF91CF918E
S1130F501F910F91FF90EF90DF90CF90BF90AF90D3
S1130F609F900895A1D080EAB6D080E0B4D080E00C
S1130F70B2D08091B7159091B815892FACD08091DB
S1130F80B7159091B815A7D094C0089568E377E099
S1130F9080E090E00E947D1582E090E09093B81587
S1130FA08093B715DFCF0895CF93DF9328D04FE810
S1130FB052E060E070E081E02FD076D08FE08BD0FB
S1130FC07CD0D82F3CD0811112C07ED0C82F37D00E
S1130FD0811110C08C2F90E09C013D2BE90169D058
S1130FE0CE01C938D34140F088E893E105C08FEFC2
S1130FF09FEF02C08FEF9FEFDF91CF91089580E2C2
S11310008093B800ECEBF0E08081846080831092E0
S1131010BB151092C0150895811103C01092BB1521
S11310200BC081E08093BB154093BC155093BD1554
S11310306093BE157093BF151092C01508958091EA
S1131040C01508958091BB15882341F11092C015F5
S11310504091BC155091BD156091BE157091BF159E
S11310604115510561057105A9F08091BC008823E3
S1131070D4F080E090E0DC01ECEBF0E003C02081F0
S113108022238CF00196A11DB11D84179507A60794
S1131090B707A9F781E08093C0150895ECEBF0E061
S11310A080818823ECF7089584EA8093BC00CACF3A
S11310B0089584E98093BC00089584EC8093BC0077
S11310C0C1DF8091BB00089584E88093BC00BADF3F
S11310D08091BB0008958093BB0084E88093BC009A
S11310E0B1CF0895EF92FF920F931F93CF93DF93A5
S11310F0CDB7DEB7C857D1090FB6F894DEBF0FBE1F
S1131100CDBF20910602223048F1092F182F74DE3A
S1131110E82EF92E0F931F939F938F9385EF97E0FB
S11311209F938F938CEE97E09F938F938E010F5F25
S11311301F4F1F930F930E942C221F930F9382E142
S11311409CE09F938F930E947C218E2D9F2D0E9463
S11311508C1F0FB6F894DEBF0FBECDBFC858DF4F4B
S11311600FB6F894DEBF0FBECDBFDF91CF911F91B4
S11311700F91FF90EF900895EF92FF920F931F93BA
S1131180CF93DF93CDB7DEB7C857D1090FB6F89424
S1131190DEBF0FBECDBF20910602233048F1092FD8
S11311A0182F2ADEE82EF92E0F931F939F938F9307
S11311B08DEF97E09F938F938CEE97E09F938F939F
S11311C08E010F5F1F4F1F930F930E942C221F93BA
S11311D00F9382E19CE09F938F930E947C218E2D3C
S11311E09F2D0E948C1F0FB6F894DEBF0FBECDBF9B
S11311F0C858DF4F0FB6F894DEBF0FBECDBFDF91E6
S1131200CF911F910F91FF90EF9008952F923F92ED
S11312104F925F926F927F928F929F92AF92BF9202
S1131220CF92DF92EF92FF920F931F93CF93DF93AE
S1131230CDB7DEB7CB53D1400FB6F894DEBF0FBEA7
S1131240CDBF6AED78E080E090E00E947D1580914A
S11312500B02816080930B02E1E8F0E080818460FE
S113126080830E94E4144FEF50E061E081E00E942B
S113127035136DEF78E080E090E00E947D1582E404
S11312808F9380E78F931F921F9281E48F9380E85E
S11312908F931F921F928BE08F9388EB8F9388E13B
S11312A099E09F938F93CE0101969F938F930E9411
S11312B02C2281E599E00E948F210FB6F894DEBFBD
S11312C00FBECDBF9FEFC75CDE4F9883C953D1409B
S11312D0C65CDE4F1882CA53D140512C412CC55CE8
S11312E0DE4F1882CB53D140712C812C912C612C70
S11312F0E12CF12C0F2EF9E2AF2EF6E1BF2EF02DEA
S11313000F2EF1ECCF2EF5E1DF2EF02D0F2EF4E8A9
S11313102F2E312CF02D0BEE15E1FE01E758FF4F77
S1131320C95CDE4FF983E883C753D1402AC1F10178
S11313308081918181319A4708F4A6C0F10111821C
S11313401082FFEFEF1AFF0AEEE2F6E180818F5F71
S113135080838FE697E10197F1F700C0000081E0F8
S11313600E948613762E872E982E692E82E00E9484
S11313708613C65CDE4F6883CA53D140572E482E6D
S1131380C55CDE4F9883CB53D14020E030E04CE580
S113139052E40E94851A18168CF4C75CDE4F9881BB
S11313A0C953D1409A50C75CDE4F9883C953D1408A
S11313B0492F50E061E081E00E9435139701ADECC4
S11313C0BCEC0E94B21E96958795969587959C01D4
S11313D0220F331F220F331F820F931FE816F906C3
S11313E009F052C0F50183818F9382818F938181AB
S11313F08F9380818F93F80181AD8F9380AD8F930C
S11314001F92C75CDE4FF881C953D140FF93C55C7E
S1131410DE4F2881CB53D1402F934F925F92C65C0D
S1131420DE4F8881CA53D1408F936F929F928F92DF
S11314307F92FF92EF92E6E6F9E0FF93EF93C85CA8
S1131440DE4F8881C853D1408F93C95CDE4F9881A9
S1131450C753D1409F930E942C22C85CDE4FE88181
S1131460C853D140EF93C95CDE4FF881C753D140D4
S1131470FF9382E19CE09F938F930E947C210FB69F
S1131480F894DEBF0FBECDBFEDB7FEB7E654F10949
S11314900FB6F894FEBF0FBEEDBFADB7BEB7119641
S11314A086E4F80101900D928A95E1F7CE018F5000
S11314B09F4F0E94011786E4FE01EF50FF4FD801B1
S11314C001900D928A95E1F70FB6F894DEBF0FBE36
S11314D0CDBFEDB7FEB7E654F1090FB6F894FEBFE1
S11314E00FBEEDBFADB7BEB7119686E4F80101900B
S11314F00D928A95E1F7CE018F509F4F0E94B1174C
S113150086E4FE01EF50FF4FD80101900D928A95B9
S1131510E1F70FB6F894DEBF0FBECDBF98EBE91626
S11315209BE0F90608F040C020E030E040E851E4D8
S1131530672D782D892D962D0E9467198823A4F58F
S1131540E4EBEE16F104B0F020E030E040E752E4C2
S1131550C65CDE4FB881CA53D140C55CDE4FE8811A
S1131560CB53D1406B2F752D842D9E2F0E9467196C
S11315708823D4F4C75CDE4FF881C953D140F937CE
S113158098F0F6016081718180E090E00E94D319A7
S11315909B01AC01F50160817181828193810E947C
S11315A0671988230CF4C3CEE9E2F6E183818F93B3
S11315B082818F9381818F9380818F9388E899E0D2
S11315C09F938F930E947C2181E00E9453130E9479
S11315D0DB146CEA79E080E090E00E947D15C75C42
S11315E0DE4FF881C953D1404F2F50E061E081E0D4
S11315F00E94351310928500109284000F900F9072
S11316000F900F900F900F90E12CF12C04E810E054
S11316100F2EF8ECCF2EF9E0DF2EF02D1AC0F801D2
S11316208081918181319A47D0F3F801118210822F
S1131630FFEFEF1AFF0AFF92EF92DF92CF920E9420
S11316407C210F900F900F900F902CE3E216F10481
S113165039F0F8018081918181319A4730F7DFCFE9
S113166081E00E94531380910B028E7F80930B02C2
S11316706DEE79E080E090E00E947D1580E090E0DE
S1131680C55CDE4F0FB6F894DEBF0FBECDBFDF9151
S1131690CF911F910F91FF90EF90DF90CF90BF906B
S11316A0AF909F908F907F906F905F904F903F90FE
S11316B02F9008951F920F920FB60F9211240BB61C
S11316C00F922F933F934F935F936F937F938F93D7
S11316D09F93AF93BF93EF93FF938091681690E02D
S11316E001966AE070E00E94751E8093681681116D
S11316F01EC08091641690916516A0916616B091F3
S113170067160196A11DB11D80936416909365160A
S1131710A0936616B0936716E0916216F091631673
S1131720309769F019950BC0FC01199512C0E0912E
S11317306016F0916116309761F019950AC0809196
S1131740070290910802A0910902B0910A02AB2B02
S113175059F7FF91EF91BF91AF919F918F917F9135
S11317606F915F914F913F912F910F900BBE0F900E
S11317700FBE0F901F9018951F920F920FB60F92E5
S113178011240BB60F922F933F934F935F936F9354
S11317907F938F939F93AF93BF93EF93FF93EA98B5
S11317A063E17AE080E090E00E947D1580910B0275
S11317B0887F80930B0280910B02866080930B02DA
S11317C00E948418FF91EF91BF91AF919F918F91E7
S11317D07F916F915F914F913F912F910F900BBE2D
S11317E00F900FBE0F901F9018951F920F920FB677
S11317F00F9211240BB60F922F933F934F935F9345
S11318006F937F938F939F93AF93BF93EF93FF93C4
S1131810EF982FEF84E39CE0215080409040E1F763
S113182000C0000084E29AE0A7DC80910B02887F6C
S113183080930B0280910B028B6080930B02FF91CB
S1131840EF91BF91AF919F918F917F916F915F9134
S11318504F913F912F910F900BBE0F900FBE0F90A1
S11318601F9018951F920F920FB60F9211240BB66A
S11318700F928F93EF93FF93E091D715F0E080914F
S1131880C600EF51FA4E8083E091D715F0E0EF5196
S1131890FA4E80818A3031F481E0809335161092BB
S11318A0D71505C08091D7158F5F8093D715FF9109
S11318B0EF918F910F900BBE0F900FBE0F901F9062
S11318C018958DE39AE00E948F21E1ECF5E1818186
S11318D08F9380818F9381E59AE09F938F930E94E9
S11318E07C218BE49AE00E948F210F900F900F903F
S11318F00F90089588E69AE00E948F21EF98ED9862
S1131900EC98E79AE59AE49AEF9AED9AEC9A83E8D0
S11319109AE00C948F210895F89480E1E1EEF5E1CA
S1131920A8EDB5E101900D928A95E1F780E1E1EE31
S1131930F5E1DF011D928A95E9F7789408958F9275
S11319409F92AF92BF92CF92DF92EF92FF920F934A
S11319501F93CF93DF93CDB7DEB78C01ADB6BEB680
S1131960DC0180E090E009C0FD012C912A3011F0E7
S11319702D3009F4108201961196F801019000208F
S1131980E9F731974F01801A910A8815990560F398
S113199043E050E0B80181E396E10E941E211092D9
S11319A03416A401435051098DB79EB7841B950B7F
S11319B00FB6F8949EBF0FBE8DBFEDB7FEB731963C
S11319C07F016F01F4E08F16910464F0D80113963F
S11319D0C701080D191D2D91FC012193CF01A017FA
S11319E0B107C9F7F701E40FF51F10820F2EF6E0D7
S11319F08F2EF2E09F2EF02D00E010E0F4016591AF
S1131A00749181E396E10E941521892B09F03BC072
S1131A1081E396E19F938F938DE99AE09F938F934F
S1131A200E947C21FF92EF9285EB9AE09F938F9323
S1131A300E947C21F801EE0FFF1FE00FF11FEE0F53
S1131A40FF1FE85FFD4F25913491C701F9011995F6
S1131A50F60101900020E9F731976F01CE18DF08F5
S1131A60DF92CF92FF92EF928CE09BE09F938F9353
S1131A700E947C218DB79EB70E960FB6F8949EBF38
S1131A800FBE8DBF1BC00133110579F481E396E1CC
S1131A909F938F938CE39BE09F938F930E947C2171
S1131AA00F900F900F900F9009C00F5F1F4F96E09B
S1131AB0890E911C0233110509F0A0CF0FB6F894DA
S1131AC0BEBE0FBEADBEDF91CF911F910F91FF90AF
S1131AD0EF90DF90CF90BF90AF909F908F9008953C
S1131AE085E19CE00E948F21EAE0F1E08081806240
S1131AF08083A0E2B1E08C9181608C93E1E2F1E01B
S1131B008081886080838C9188608C9380818160DF
S1131B10808385E19CE00C948F2108958BE29CE006
S1131B200E948F21EAE0F1E0808188608083A0E256
S1131B30B1E08C9181608C93E1E2F1E08081886076
S1131B4080838C9180688C938081816080838BE218
S1131B509CE00C948F21089583B7846083BF08951B
S1131B6061E47CE080E090E0C8D78FE99FE00197D2
S1131B70F1F700C0000081E08093B415ECE6F0E0DA
S1131B8080818160808383B7816083BF889583B7B8
S1131B908E7F83BF87E59CE00C948F2108958BE6AC
S1131BA09CE00E948F21E7E0F1E0808180688083DF
S1131BB08081806480838081806280838081806171
S1131BC08083808188608083839A819A9D9A8EE73E
S1131BD09CE00C948F210895880F880FB1F120E0C8
S1131BE0E8E0F1E090819068908390819064908324
S1131BF090819062908390819061908390819860AD
S1131C0090838B9A899AA59AAFE5BAEE1197F1F76A
S1131C1000C0000090819F77908390819F7B908388
S1131C2090819F7D908390819F7E90839081977F08
S1131C3090838B988998A598AFE5BAEE1197F1F740
S1131C4000C000002F5F8213CDCF08956130A1F54D
S1131C5090E08830910558F5FC018827EE58FF4F35
S1131C608F4F0C94AA1EE8E0F1E0808180688083A5
S1131C700895E8E0F1E08081806480830895E8E0DD
S1131C80F1E08081806280830895E8E0F1E0808162
S1131C90806180830895E8E0F1E08081886080833A
S1131CA008958B9A0895899A0895A59A089582E9CA
S1131CB09CE00C948F210895611134C090E0883029
S1131CC0910558F5FC018827E658FF4F8F4F0C9477
S1131CD0AA1EE8E0F1E080818F7780830895E8E030
S1131CE0F1E080818F7B80830895E8E0F1E08081DA
S1131CF08F7D80830895E8E0F1E080818F7E80838A
S1131D000895E8E0F1E08081877F808308958B98CF
S1131D10089589980895A598089587EC9CE00C94FB
S1131D208F2108958AEF9CE00C948F210895CF921F
S1131D30DF92EF92FF920F931F93CF93DF9368E2AA
S1131D407DE080E090E0D9D666E47DE080E090E03C
S1131D50D4D6C3E0D0E02FD62FEF80E792E0215015
S1131D6080409040E1F700C000008CE59DE00E94B7
S1131D708F212AD68CE79DE00E948F212FEF80E7E8
S1131D8092E0215080409040E1F700C0000021978C
S1131D9011F76BE97DE080E090E0AFD64FEF50E0C3
S1131DA061E081E062D42FEF8EE994E2215080401B
S1131DB09040E1F700C0000081E075D42FEF89E680
S1131DC098E1215080409040E1F700C000004FEFBF
S1131DD050E060E081E049D42FEF8EE994E2215095
S1131DE080409040E1F700C0000081E05CD481E0D5
S1131DF08DD4F62EE72ED82EC92E82E087D4C62F96
S1131E00D72F182F092F81E48F9380E88F931F9287
S1131E101F92CF92DF92EF92FF928AEA9DE09F9306
S1131E208F930E947C2182E48F9380E78F931F928B
S1131E301F920F931F93DF93CF938CED9DE09F939D
S1131E408F930E947C2160E082E000DF67E07EE007
S1131E5080E090E052D68DB79EB744960FB6F894C2
S1131E609EBF0FBE8DBF80E090E0DF91CF911F91A8
S1131E700F91FF90EF90DF90CF900895E8E0F1E0AC
S1131E8080818F77808380818F7B808380818F7D29
S1131E90808380818F7E80838081877F80838B98FD
S1131EA08998A59808956FED7EE080E090E025D6AE
S1131EB060910B0280E090E0B9D66AE87FE080E0B0
S1131EC090E01BC608951F920F920FB60F92112433
S1131ED00BB60F922F933F934F935F936F937F9320
S1131EE08F939F93AF93BF93EF93FF932FEF84E36D
S1131EF09CE0215080409040E1F700C000008CEE4F
S1131F009EE03AD98DEF9EE037D980910B0283FD94
S1131F1009C080910B02886080930B0282E19FE0EC
S1131F202BD908C080910B02877F80930B0286E235
S1131F309FE022D9B8DFFF91EF91BF91AF919F91BC
S1131F408F917F916F915F914F913F912F910F905E
S1131F500BBE0F900FBE0F901F9018951F920F92FB
S1131F600FB60F9211240BB60F922F933F934F93FA
S1131F705F936F937F938F939F93AF93BF93EF93ED
S1131F80FF932FEF84E39CE0215080409040E1F7E1
S1131F9000C000008BE39FE0EFD880910B02877FA5
S1131FA080930B0280910B02877090E0079734F4C2
S1131FB080910B028F5F80930B020AC080910B0209
S1131FC08770873029F480910B02887F80930B02FD
S1131FD06ADFFF91EF91BF91AF919F918F917F91B4
S1131FE06F915F914F913F912F910F900BBE0F9086
S1131FF00FBE0F901F901895CF93DF93CDB7DEB728
S1132000CD55D1090FB6F894DEBF0FBECDBF80E029
S113201090E087D561E57FE080E090E06ED56FE6E3
S11320207FE080E090E069D562E87FE080E090E0C6
S113203064D568E87FE080E090E05FD5B0DD0E9481
S1132040FF070E941D0342D343D54ADD67DD84DDCB
S113205051DCF6D2CE010196CFD486E1FE01319651
S1132060A1ECB5E101900D928A95E1F72ADC8DB7D8
S11320709EB7865491090FB6F8949EBF0FBE8DBFCC
S1132080ADB7BEB7119686E4EBEEF5E101900D9283
S11320908A95E1F7CE014796D5D786E4FE01779677
S11320A0ABEEB5E101900D928A95E1F70FB6F89485
S11320B0DEBF0FBECDBF81E08FDD0E942C030E94E6
S11320C09B030E947605EFDED9DE0E948E180F2E48
S11320D0F2E72F2EF1E13F2EF02D0F2EF1E84F2ED7
S11320E0512CF02D04E810E00F2EF5E96F2EF1E1EC
S11320F07F2EF02DC3DE83B7817F846083BF8FE59D
S11321009AEE0197F1F700C000002ADDF12CEE24CD
S1132110E3948091B6158823A1F01092B61589E650
S113212094E00E94BF21A4D5F82E6DE87FE080E002
S113213090E0E3D48F2DA5D56AE87FE080E090E0BD
S1132140DCD4FF2009F461C093E3F91611F19F1563
S113215038F0E1E3FE1659F0F2E3FF1689F039C0D6
S113216024E3F21641F185E3F81671F132C067E910
S11321707FE080E090E0C1D481E080930B0247C20D
S11321806EEA7FE080E090E0B8D482E080930B02B6
S11321903EC263EC7FE080E090E0AFD483E08093C4
S11321A00B0265EE7FE080E090E0A7D461D589372B
S11321B009F042C216C267E170E180E090E09DD46C
S11321C084E080930B0223C260E177E280E0A8D52B
S11321D01EC26DE270E180E090E08FD4E092B6150B
S11321E098CF893591F480910B02886080930B021B
S11321F066E470E180E090E080D493E3F91205C0D6
S113220080910B02806880930B0280910B0287708F
S1132210813009F56EE670E180E090E06ED461E013
S113222080E014DD0AC080913516813031F474DB0E
S113223088ED95E184DB1092351680910B0287704E
S1132240813089F3EFEFF0E722E0E150F0402040E5
S1132250E1F700C0000080910B0287708230F1F436
S11322600DDE61E081E0F2DC81E990E10E948F21E2
S113227010C080910B028F708A3059F481E990E18B
S11322800E948F210E94970282E390E00E94BB0289
S1132290F9CF80910B028770823059F380910B0241
S11322A08770833071F5EADD61E082E0CFDC61EABA
S11322B070E180E090E021D41FC080910B028F7800
S11322C08B3861F48DEB90E10E94BC080E940609F2
S11322D080910B02807780930B020EC080910B02D9
S11322E08F788B3049F484EE90E10E948F218091A5
S11322F00B02807F80930B0280910B0287708330E6
S1132300E1F280910B028770843009F0B4C0B6DD2D
S113231068E371E180E090E0F0D361E083E096DC73
S11323200F2EF1E6AF2EF1E1BF2EF02D9EC080916D
S11323300B028F708C3009F098C08DE491E10E94FB
S11323408F21EE24E394F12C0F2EF0EB8F2EF1E18C
S11323509F2EF02D6E96EFAE6E978E2D823081F00B
S11323608330D1F0813019F51F9291E09F93BF9291
S1132370AF920E947C210F900F900F900F9017C086
S11323801F92E2E0EF933F922F920E947C210F90E4
S11323900F900F900F900BC01F92F3E0FF93BF922A
S11323A0AF920E947C210F900F900F900F900CD34E
S11323B04FEF50E061E081E058D1F2018081846008
S11323C08083F80111821082C12CD12C1FC0F80126
S11323D08081918181319A47D0F3F8011182108272
S11323E0FFEFCF1ADF0A1F922FE02F93DF92CF92D5
S11323F07F926F920E947C210F900F900F900F900C
S11324000F900F908FE0C816D10439F0F801808145
S1132410918181319A4708F7DACFCDD281E043D157
S1132420FF92EF929F928F920E947C2180910B02E7
S1132430877F80930B020F900F900F900F906E96F2
S11324402FAD6E97243020F480910B0283FFFCCFD4
S11324508FEFE81AF80A95E0E916F10409F07ACF4B
S113246080910B02807F80930B0280910B02877016
S1132470843009F45CCF80910B028770853009F0B9
S113248055C0FCDC89EC91E19F938F930E947C21E1
S113249061E084E0DBDB0F900F900F2EF2E0CF2E93
S11324A0F2E1DF2EF02D3CC080910B028F708D3055
S11324B0B9F583EE91E10E947208EE24E394F12CC5
S11324C0FF92EF92DF92CF920E947C2183E292E10D
S11324D00E948F21EFEFF3ED20E3E150F040204024
S11324E0E1F700C0000083E392E10E948F218FEFA7
S11324F093EDE0E381509040E040E1F700C000003C
S1132500FFEFEF1AFF0A0F900F900F900F9023E345
S1132510E216F104A9F680910B02807F80930B02EE
S113252080910B028770853009F4BECF80910B0235
S113253087708630F1F4A2DC84E492E10E948F215A
S113254061E084E083DB10C080910B028F708E30D9
S113255059F484E692E10E948F210E94C60780917B
S11325600B02807F80930B0280910B028770863070
S113257059F380910B028770873051F57FDC89E72E
S113258092E10E948F211EC080910B028F708F30C8
S1132590C9F48DE892E10E948F218AE0EFE1FEE424
S11325A03197F1F700C000008150C1F780910B0210
S11325B0807F80930B028091B415882319F089D50C
S11325C01092B41580910B0287708730E9F292CD96
S11325D083EA92E19F938F930E947C210F900F9046
S11325E089CD80910B02886080930B0266E470E1D0
S11325F080E090E082D204CE80910B0288608093C8
S11326000B0266E470E180E090E077D2FECD65EEE7
S11326107FE080E090E071D22BD3893709F0E1CDDF
S1132620EBCF80910B02886080930B0266E470E12B
S113263080E090E062D2E4CD893509F0E6CDF1CFB7
S11326408AE093E10E948F219B9AE1E0F1E080818E
S113265080688083EAE0F1E0808188608083279A43
S113266085E293E10C948F2108958130D9F46111AE
S11326700CC0A39A50932901409328012F9AE2E0B9
S1132680F1E080818F7780830895613059F4A398B5
S113269050932901409328012F9AE2E0F1E08081D0
S11326A0806880830895813019F0823051F0089554
S11326B0A398E2E0F1E080818F7780838FE785B98A
S11326C0089581E493E10C94BC08089584E893E1AF
S11326D00E948F21209AA1E0B1E08C9180618C93BB
S11326E0E2E0F1E08081806180838C9180628C9350
S11326F08081806280838C9180648C9380818064EB
S1132700808382EA93E10C948F210895CF93DF9321
S1132710289AEFE1FEE43197F1F700C00000813020
S113272031F4E2E0F1E080818F7E808314C0823056
S113273031F4E2E0F1E080818F7D80830CC083304E
S113274031F4E2E0F1E080818F7B808304C081EC8E
S113275093E10E948F218FEFCAD1C82F8FEFC7D189
S1132760D82F8FEFC4D18FEFC2D18C2F807C8130D2
S113277021F128F08A3049F18B3079F136C0CF73DA
S11327806C2F70E0762F66276D0F711D80E090E04E
S11327900AD62BE734ED43E253E49DD520E030E044
S11327A046E153E4B6D620E030E048EC52E493D559
S11327B020E030E0A90127D51BC08DEF93E10E94F2
S11327C08F2160E070E0CB0113C080E394E10E94AC
S11327D08F2160E070E0CB010BC08EE694E10E9493
S11327E08F2160E070E0CB0103C060E070E0CB01BA
S11327F0E2E0F1E0208120612083208120622083B7
S11328002081206420832898DF91CF910895CF936D
S1132810DF93F894E7E3F6E18081918191878087E3
S1132820C6E4D6E18881998199878887A4E5B6E1D1
S11328308D919C91119719969C938E931897118260
S113284010821982188211961C921E9278948085A7
S11328509185992314F48FEF9FE720913E16820F00
S1132860911D969587958F3F910519F010F08FEF84
S113287090E080933E1680914E1690914F169923C6
S113288014F48FEF9FE720914D16820F911D9695BA
S113289087958F3F910519F010F08FEF90E08093AA
S11328A04D1680915C1690915D16992314F48FEF68
S11328B09FE720915B16820F911D969587958F3F18
S11328C0910519F010F08FEF90E0A4E5B6E11796AA
S11328D08C931797E7E3F6E18085918542815381D4
S11328E064817581480F591F611D711D4283538393
S11328F064837583C6E4D6E1888599854A815B81C2
S11329006C817D81480F591F611D711D4A835B8352
S11329106C837D8318968D919C91199712964D9195
S11329205D916D917C911597480F591F611D711D23
S113293012964D935D936D937C9315978085918545
S1132940892B69F080913F169091401646E8489F84
S11329509001499F300D112422583D4F02C020E0C0
S113296030E08091501690915116A0915216B0917A
S11329705316820F931FA11DB11D8093501690937F
S11329805116A0935216B093531680913F1690910E
S11329904016892B31F4809136168F5F809336165A
S11329A007C080913616882319F08150809336161B
S11329B0DF91CF9108958CE59DE00E948F211092C4
S11329C02D0110922C0108958CE79DE00E948F2127
S11329D0ECE2F1E08FEF90E0918380832FE78AE1CE
S11329E096E0215080409040E1F700C000008CE860
S11329F090E0918380830895AF92BF92CF92DF924B
S1132A00EF92FF920F931F93CF93DF93CDB7DEB76F
S1132A1066970FB6F894DEBF0FBECDBF5C01CE0142
S1132A2001967C016E0195E1C90ED11C8701C80194
S1132A308E199F090E942E24F801819391938F018E
S1132A40EC15FD05A1F786E1FE013196D501019053
S1132A500D928A95E1F7C50166960FB6F894DEBF2C
S1132A600FBECDBFDF91CF911F910F91FF90EF90DB
S1132A70DF90CF90BF90AF900895CF92DF92EF9206
S1132A80FF920F931F93CF93DF93CDB7DEB76E0101
S1132A9020E2C20ED11C8E01045F1F4F8EEF9FEF08
S1132AA07C01E01AF10AF801619171918F01C7016B
S1132AB08E0F9F1F0E9433240C151D05A1F7DF9173
S1132AC0CF911F910F91FF90EF90DF90CF900895D9
S1132AD08FE994E10E948F2184B1876084B98CB519
S1132AE081658CBD8AEB94E10C948F2108958EBD91
S1132AF00DB407FEFDCF8EB508950F931F93CF93AA
S1132B00DF93EB016881662339F08C012196C801BB
S1132B1047D069916111FBCFDF91CF911F910F9144
S1132B200895009719F00197C1F02EC0F894E1ECD4
S1132B30F0E0808188618083808180688083E2EC1A
S1132B40F0E080818660808386E080831092C500F7
S1132B5083E38093C40078941CC0F894E9ECF0E01B
S1132B60808188618083808180688083EAECF0E0E2
S1132B7080818660808386E080831092CD0083E329
S1132B808093CC00789405C066ED74E180E090E019
S1132B90B4DF8CE092E090937216809371160895DE
S1132BA0009719F0019749F010C0E0ECF0E0808143
S1132BB085FFFDCF6093C6000895E8ECF0E08081C6
S1132BC085FFFDCF6093CE0008956CE275E180E04F
S1132BD090E093CF0895CF93C82F8A3021F46DE00D
S1132BE080E090E0DDDF6C2F80E090E0D9DF80E0D2
S1132BF090E0CF910895009719F0019749F010C023
S1132C00E0ECF0E0808185FFFDCF6093C60008957D
S1132C10E8ECF0E0808185FFFDCF6093CE0008955D
S1132C206CE275E180E090E068CF08951F93CF9344
S1132C30DF931F92CDB7DEB7698317E0898190E0F7
S1132C40012E02C0959587950A94E2F780FF05C08E
S1132C5061E380E090E0CFDF04C060E380E090E0D7
S1132C60CADF115058F70F90DF91CF911F9108954B
S1132C70F894E0ECF0E080818823ECF78091C600C2
S1132C800895E0ECF0E0908195FFFDCF8093C600BD
S1132C900895EF92FF920F931F93CF93DF936623D0
S1132CA0A1F08C01EC016150262F30E02F5F3F4FE3
S1132CB0020F131F7E01DCDF89938D3019F4F701B5
S1132CC0108203C0C017D107A9F7DF91CF911F91DC
S1132CD00F91FF90EF9008950F931F93062F662393
S1132CE081F0E82FF92F40E050E0BA0180E0A19193
S1132CF0B1914A0F5B1F611D711D8F5F0813F7CFE0
S1132D0003C040E050E0BA0110E020E030E0CB0125
S1132D10BA01A9019801FCD7C9011F910F91089527
S1132D208F929F92AF92BF92CF92DF92EF92FF92D7
S1132D300F931F93CF93DF93CDB7DEB72A970FB6C8
S1132D40F894DEBF0FBECDBF4B010F2EF0E4CF2EA3
S1132D50F5E1DF2EF02D0F2EFBE5EF2EF5E1FF2E32
S1132D60F02DA82EB12CDF92CF920E947C216AE034
S1132D70CE0101968EDFCE0101960E9415208C01B2
S1132D801F938F93FF92EF920E947C210F900F90DC
S1132D900F900F900F900F900A151B0520F38016CB
S1132DA0910608F31093C2150093C1158DB79EB711
S1132DB046970FB6F8949EBF0FBE8DBFADB7BEB792
S1132DC0119686E1E1ECF5E101900D928A95E1F727
S1132DD054DE0FB6F894DEBF0FBECDBF2A960FB6F1
S1132DE0F894DEBF0FBECDBFDF91CF911F910F913D
S1132DF0FF90EF90DF90CF90BF90AF909F908F9017
S1132E0008954F925F926F927F929F92AF92BF927A
S1132E10CF92DF92EF92FF920F931F93CF93DF93A2
S1132E2000D01F92CDB7DEB77C0165964CAC5DAC8B
S1132E306EAC7FAC65976A961FAD6A976C969FAC33
S1132E406C9720918400309185002F964EAD5FAD34
S1132E502F97149FC001159F900D1124821793077B
S1132E6008F056C0098D101708F052C0A12EB12CDD
S1132E700E94D4076C01F5013296EE0FFF1F87E123
S1132E8090E08C0F9D1FE80FF91FD182C0828F89BB
S1132E908C9DB0018D9D700D112480E090E083D253
S1132EA020E030E040E752E416D269837A838B83D2
S1132EB09C83602F70E080E090E075D29B01AC01B0
S1132EC069817A818B819C8106D220E030E040E2E6
S1132ED051E401D29B01AC01C301B20194D12B0195
S1132EE03C01802F90E02A8D821B91098A159B0555
S1132EF074F4E92DF0E07196EE0FFF1F87E190E086
S1132F008C0F9D1FE80FF91FD182C08293941F5F1D
S1132F1065964CAE5DAE6EAE7FAE65976A961FAF9A
S1132F206A976C969FAE6C9786E4FE017796D701FC
S1132F3001900D928A95E1F7C7010F900F900F90C1
S1132F400F90DF91CF911F910F91FF90EF90DF9041
S1132F50CF90BF90AF909F907F906F905F904F9075
S1132F600895FF920F931F93CF93DF93CDB7DEB7EE
S1132F708C01F9842D962FAD2D9730E08F2D90E0A4
S1132F804A85841B9109281739070CF44CC06B85BA
S1132F90CE010D96A1DE23969FAF8EAF2397F89EA8
S1132FA0B001F99E700D112480E090E0FCD120E086
S1132FB030E040E752E48FD120E030E040E251E4D9
S1132FC08AD12B962CAD3DAD4EAD5FAD2B971BD169
S1132FD02B966CAF7DAF8EAF9FAF2B972C961FAE09
S1132FE02C974C854423C9F0FE013D962FEF240F06
S1132FF030E02D5F3F4F220F331F89E090E08C0FAC
S11330009D1F280F391F868D978D81939193E21709
S1133010F307C9F72C964FAF2C972D961FAE2D971B
S11330202E961FAE2E9786E4FE013996D8010190A4
S11330300D928A95E1F7C801DF91CF911F910F910D
S1133040FF900895CF93DF93CDB7DEB73FE03E8383
S113305022E02F833887298719A618A61DA61CA647
S11330602AE932E03DAF2CAF1FAE1EAE24961CAE53
S11330701DAE1EAE1FAE249728961CAE1DAE1EAE0E
S11330801FAE289729961FAE29972A961FAE2A9716
S11330902B961FAE2B972C961FAE2C9726E4FE0181
S11330A03696DC0101900D922A95E1F7DF91CF91DC
S11330B00895F89452985A9AE9E6F0E08081806283
S11330C08083808180618083EA98E29AEA9A789486
S11330D008956DE675E180E090E00FDDE9ECF0E045
S11330E080818F7E80838081877F808380818F77BA
S11330F080832FEF89E698E1215080409040E1F7EA
S113310000C00000D6CF0895EA9881E090E009DD80
S113311060E975E180E090E0F0CC0895F894ECE685
S1133120F0E08081867E80836898709AA4E0B1E0A4
S11331308C91837F8C93A5E0B1E08C918C608C930F
S1133140D99AA8E6B0E08C9182608C9389E180835F
S11331508CB1817080936916809103018F73809381
S11331606A16789408951F920F920FB60F92112445
S11331700BB60F922F933F938F939F93EF93FF93ED
S11331809CB19170209103012F7330916916909333
S1133190691680916A16822720936A16931741F064
S11331A0ECE6F0E090819E7F908391E09093B615D9
S11331B082FF08C0E7E3F6E1208131812F5F3F4FB2
S11331C03183208383FF08C0E6E4F6E12081318166
S11331D02F5F3F4F3183208384FF07C0E4E5F6E18E
S11331E080819181019691838083FF91EF919F91DA
S11331F08F913F912F910F900BBE0F900FBE0F90A8
S11332001F9018955058BB27AA270ED044C135D11A
S113321030F03AD120F031F49F3F11F41EF42AC16A
S11332200EF4E095E7FB20C1E92F46D180F3BA17ED
S1133230620773078407950718F071F49EF55EC161
S11332400EF4E0950B2EBA2FA02D0B01B9019001BD
S11332500C01CA01A0011124FF27591B99F0593F01
S113326050F4503E68F11A16F040A22F232F342F49
S11332704427585FF3CF469537952795A795F04097
S11332805395C9F77EF41F16BA0B620B730B840BAC
S1133290BAF09150A1F0FF0FBB1F661F771F881F64
S11332A0C2F70EC0BA0F621F731F841F48F48795BC
S11332B077956795B795F7959E3F08F0B3CF9395AB
S11332C0880F08F09927EE0F979587950895A8D051
S11332D008F481E008950CD0DEC0D6D040F0CDD003
S11332E030F021F45F3F19F0BFC0511108C1C2C0D2
S11332F0E3D098F39923C9F35523B1F3951B550BE8
S1133300BB27AA2762177307840738F09F5F5F4FB4
S1133310220F331F441FAA1FA9F333D00E2E3AF0F5
S1133320E0E830D091505040E695001CCAF729D00F
S1133330FE2F27D0660F771F881FBB1F261737075E
S11333404807AB07B0E809F0BB0B802DBF01FF278E
S113335093585F4F2AF09E3F510568F085C0CFC057
S11333605F3FECF3983EDCF3869577956795B795C8
S1133370F7959F5FC9F7880F911D9695879597F9E3
S11333800895E1E0660F771F881FBB1F621773075C
S11333908407BA0720F0621B730B840BBA0BEE1F71
S11333A088F7E0950895E89409C097FB3EF490955A
S11333B08095709561957F4F8F4F9F4F9923A9F00A
S11333C0F92F96E9BB279395F69587957795679599
S11333D0B795F111F8CFFAF4BB0F11F460FF1BC0DD
S11333E06F5F7F4F8F4F9F4F16C0882311F096E970
S11333F011C0772321F09EE8872F762F05C066231E
S113340071F096E8862F70E060E02AF09A95660FD6
S1133410771F881FDAF7880F9695879597F908958F
S1133420990F0008550FAA0BE0E8FEEF16161706D1
S1133430E807F907C0F012161306E407F50798F039
S1133440621B730B840B950B39F40A2661F0232B52
S1133450242B252B21F408950A2609F4A140A695CE
S11334608FEF811D811D089597F99F6780E870E0B3
S113347060E008959FEF80EC089500240A941616E6
S1133480170618060906089500240A94121613064E
S1133490140605060895092E0394000C11F48823DC
S11334A052F0BB0F40F4BF2B11F460FF04C06F5FF8
S11334B07F4F8F4F9F4F089557FD9058440F551FCE
S11334C059F05F3F71F04795880F97FB991F61F0A2
S11334D09F3F79F087950895121613061406551F19
S11334E0F2CF4695F1DF08C0161617061806991F85
S11334F0F1CF86957105610508940895E894BB277A
S113350066277727CB0197F908958ADF08F48FEFB0
S113351008950BD0C0CFB1DF28F0B6DF18F09523A3
S113352009F0A2CFA7CF1124EACFC6DFA0F3959F5D
S1133530D1F3950F50E0551F629FF001729FBB2796
S1133540F00DB11D639FAA27F00DB11DAA1F649F42
S11335506627B00DA11D661F829F2227B00DA11DF5
S1133560621F739FB00DA11D621F839FA00D611D7B
S1133570221F749F3327A00D611D231F849F600D9C
S1133580211D822F762F6A2F11249F5750408AF0D5
S1133590E1F088234AF0EE0FFF1FBB1F661F771F61
S11335A0881F91505040A9F79E3F510570F05CCFA1
S11335B0A6CF5F3FECF3983EDCF38695779567954D
S11335C0B795F795E7959F5FC1F7FE2B880F911D7F
S11335D09695879597F908952F923F924F925F920F
S11335E06F927F928F929F92AF92BF92CF92DF920F
S11335F0EF92FF920F931F93CF93DF93CDB7DEB774
S113360060970FB6F894DEBF0FBECDBF7C011B01DF
S11336106A01FC0117821682838181FF2AC39E01FD
S11336202F5F3F4F3901F7019381F10193FD85919C
S113363093FF81911F01882309F417C3853239F45C
S113364093FD859193FF81911F01853231F4B70178
S113365090E016D656016501E6CF10E0512C912C6E
S1133660FFE1F915D8F08B3279F038F4803279F033
S11336708332A1F4F92DF0612EC08D3261F08033D4
S113368069F4292D21602DC0392D3260932E892DA6
S11336908460982E2AC0E92DE86015C097FC2DC0DF
S11336A020ED280F2A3088F496FE06C03AE0139FD6
S11336B0200D1124122F19C08AE0589E200D1124C8
S11336C0522EE92DE0629E2E10C08E3231F496FC0B
S11336D0CCC2F92DF0649F2E08C08C3621F4292D1C
S11336E02068922E02C0883641F4F10193FD859141
S11336F093FF81911F018111B3CF9BEB980F9330FE
S113370020F4992D9061805E07C09BE9980F933057
S113371008F059C1992D9F7E96FF16E09F73992E4C
S1133720853619F49064992E08C0863621F4392F11
S11337303068932E02C01111115097FE07C01C333C
S113374050F444244394410E27E00BC0183038F061
S113375027E017E005C027E09CE3492E02C0212F93
S1133760412C560184E0A80EB11CF60160817181E0
S113377082819381042DA30175D46C01F981FC87A6
S1133780F0FF02C0F3FF06C091FC06C092FE06C023
S113379000E205C00DE203C00BE201C000E08C852D
S11337A08C7019F0011143C280C297FE10C04C0CFA
S11337B0FC85F4FF04C08A81813309F44A9414140B
S11337C074F528E0241578F588E0482E2CC096FC82
S11337D02AC0812F90E08C159D059CF03CEFC31608
S11337E03FEFD30674F0892D8068982E0AC0E2E07A
S11337F0F0E0EC0FFD1FE10FF11D8081803319F41F
S113380011501111F4CF97FE0EC044244394410E7D
S1133810812F90E0C816D9062CF41C1904C0442446
S1133820439401C010E097FE06C01C141D0434F438
S1133830C601019605C085E090E002C081E090E0F9
S113384001110196112331F0212F30E02F5F3F4FFA
S1133850820F931F252D30E08217930714F4581A12
S113386001C0512C892D897041F4552031F0B701E4
S113387080E290E005D55A94F8CF002321F0B701F7
S1133880802F90E0FDD493FC08C0552031F0B7019F
S113389080E390E0F5D45A94F8CF97FE4AC04601ED
S11338A0D7FE02C0812C912CC60188199909F30115
S11338B0E80FF91FFE87ED87960124193109388B2B
S11338C02F87012F10E01195019511093FEF831601
S11338D0930621F4B7018EE290E0D2D4C814D9043F
S11338E04CF08F8598898815990524F4ED85FE851B
S11338F0818101C080E3F1E08F1A91082D853E8516
S11339002F5F3F4F3E872D878016910624F0B70125
S113391090E0B6D4DBCFC814D90441F49A8196332D
S113392020F4953319F43C8534FF81E3B70190E02A
S113393048C08A81813319F09C859F7E9C87B7019A
S113394090E09ED4111105C094FC16C085E690E069
S113395015C0B7018EE290E093D41E5F82E001E0CF
S1133960080FF301E80FF11D8081B70190E088D4BE
S1133970802F0113F4CFE8CF85E490E0B70180D421
S1133980D7FC06C0C114D10441F4EC85E4FF05C0A2
S1133990D194C194D1088DE201C08BE2B70190E0CB
S11339A06FD480E32AE0C216D1042CF08F5FFAE0D2
S11339B0CF1AD108F7CFB70190E062D4B701C6019E
S11339C0C0965ED449C1833631F0833779F08335AC
S11339D009F052C01FC0560132E0A30EB11CF6011B
S11339E08081898301E010E0630111C05601F2E097
S11339F0AF0EB11CF601C080D18096FE03C0612FCA
S1133A0070E002C06FEF7FEFC60127D48C01F92D5F
S1133A10FF7713C0560122E0A20EB11CF601C0804C
S1133A20D18096FE03C0612F70E002C06FEF7FEF7C
S1133A30C601F0D38C01F92DF0689F2EF3FD18C058
S1133A40852D90E00817190798F4B70180E290E0FB
S1133A5017D45A94F5CFF60197FC859197FE81917E
S1133A606F01B70190E00CD451105A940150110920
S1133A700115110581F7F0C0843611F0893659F526
S1133A80560197FE09C024E0A20EB11CF601608124
S1133A907181828193810AC0F2E0AF0EB11CF601FC
S1133AA060817181072E000C880B990BF92DFF762C
S1133AB09F2E97FF09C090958095709561957F4FD3
S1133AC08F4F9F4FF0689F2E2AE030E0A301F2D47D
S1133AD0C82EC6183EC0092D853721F40F7E2AE072
S1133AE030E01DC0097F8F3691F018F4883559F005
S1133AF0BCC0803719F0883711F0B7C0006104FFEB
S1133B0009C0046007C094FE08C0066006C028E02F
S1133B1030E005C020E130E002C020E132E056018F
S1133B2007FF09C084E0A80EB11CF6016081718111
S1133B308281938108C0F2E0AF0EB11CF60160816E
S1133B40718180E090E0A301B5D4C82EC6180F7728
S1133B50902E96FE0BC0092D0E7FC11650F494FED4
S1133B600AC092FC08C0092D0E7E05C0DC2C092D6C
S1133B7003C0DC2C01C0D12E04FF0DC0FE01EC0DEE
S1133B80F11D8081803311F4097E09C002FF06C053
S1133B90D394D39404C0802F867809F0D39403FD82
S1133BA010C000FF06C01C2DD51478F4150D1D1986
S1133BB00CC0D51450F4B70180E290E061D3D394E3
S1133BC0F8CFD51410F45D1801C0512C04FF0FC0B8
S1133BD0B70180E390E054D302FF16C001FD03C097
S1133BE088E790E002C088E590E0B7010CC0802F20
S1133BF0867851F001FF02C08BE201C080E207FD2C
S1133C008DE2B70190E03CD3C11630F4B70180E3F4
S1133C1090E036D31150F8CFCA94F301EC0DF11DA6
S1133C208081B70190E02CD3C110F6CF15C0F4E029
S1133C30F51550F584E0581A93FE1EC0011125C0F5
S1133C402C8523FF27C004E011E0392D3071932E19
S1133C50F8018491811121C0552009F4FCCCB701ED
S1133C6080E290E00DD35A94F7CFF70186819781D3
S1133C7023C08FEF9FEF20C0B70180E290E000D314
S1133C805A945110F9CFDACF512CB701802F90E01C
S1133C90F7D2D6CF08E011E0D8CF91108052B70107
S1133CA090E0EED20F5F1F4FD3CF23E0251510F421
S1133CB083E0C1CF512CC4CF60960FB6F894DEBF19
S1133CC00FBECDBFDF91CF911F910F91FF90EF9069
S1133CD0DF90CF90BF90AF909F908F907F906F9028
S1133CE05F904F903F902F90089597FB072E16F406
S1133CF0009406D077FD08D044D007FC05D03EF4EC
S1133D00909581959F4F0895709561957F4F089583
S1133D10A1E21A2EAA1BBB1BFD010DC0AA1FBB1FCB
S1133D20EE1FFF1FA217B307E407F50720F0A21B3D
S1133D30B30BE40BF50B661F771F881F991F1A94AA
S1133D4069F760957095809590959B01AC01BD01D4
S1133D50CF010895EE0FFF1F881F8BBF0790F691C8
S1133D60E02D1994A29FB001B39FC001A39F700DD1
S1133D70811D1124911DB29F700D811D1124911D6F
S1133D800895AA1BBB1B51E107C0AA1FBB1FA6179E
S1133D90B70710F0A61BB70B881F991F5A95A9F7F0
S1133DA080959095BC01CD010895EF920F931F93D8
S1133DB0CF93DF93E80147FD02C034E001C034E152
S1133DC0042E000C550B57FF03C051954195510922
S1133DD0E32E022F242FAE01CBD3CE01DF91CF915E
S1133DE01F910F91EF9008950F931F93CF93DF933B
S1133DF08230910510F482E090E0E0916D16F0912C
S1133E006E1620E030E0A0E0B0E0309719F1408178
S1133E1051810281138148175907C8F08417950707
S1133E2069F4109731F012960C93129713961C9321
S1133E3027C000936D1610936E1622C0211531050C
S1133E4019F04217530718F49A01BD01EF01DF017D
S1133E50F801DBCF21153105F9F0281B390B24308B
S1133E60310580F48A819B816115710521F0FB0184
S1133E709383828304C090936E1680936D16FE0123
S1133E80329644C0FE01E20FF31F819391932250B6
S1133E903109398328833AC020916B1630916C160E
S1133EA0232B41F4209102023091030230936C16CB
S1133EB020936B16209100023091010221153105E7
S1133EC041F42DB73EB74091040250910502241BE2
S1133ED0350BE0916B16F0916C16E217F307A0F422
S1133EE02E1B3F0B2817390778F0AC014E5F5F4F4C
S1133EF02417350748F04E0F5F1F50936C164093FC
S1133F006B168193919302C0E0E0F0E0CF01DF9162
S1133F10CF911F910F910895CF93DF93009709F4E8
S1133F2081C0FC01329713821282A0916D16B09168
S1133F306E16109781F420813181820F931F209196
S1133F406B1630916C162817390751F5F0936C16DF
S1133F50E0936B1667C0ED0120E030E0CE17DF0779
S1133F6040F44A815B819E0141155105F1F0EA015B
S1133F70F5CFD383C28340815181840F951FC81725
S1133F80D90759F488819981840F951F02969183EA
S1133F9080838A819B81938382832115310529F44F
S1133FA0F0936E16E0936D163DC0E901FB83EA833E
S1133FB049915991C40FD51FEC17FD0761F4808115
S1133FC09181840F951F0296E901998388838281E8
S1133FD093819B838A83E0E0F0E012968D919C911B
S1133FE01397009719F0FD01DC01F7CF8D919C9197
S1133FF011979D012E5F3F4F820F931F20916B16E7
S113400030916C162817390769F4309729F4109207
S11340106E1610926D1602C013821282B0936C1643
S1134020A0936B16DF91CF910895FC0188279927FF
S1134030E89421912032E9F3293010F02E30C8F3AE
S11340402B3239F02D3231F4689403C011D1820F30
S1134050911D219120532A30C8F31EF49095819527
S11340609F4F0895283008F027E03327DA01990F8D
S1134070311D87FD916000966105710539F4326048
S11340802E5F3D9330E32A95E1F708959F3F30F08A
S113409080387105610509F03C5F3C5F3D939130C8
S11340A008F08068911DDF93CF931F930F93FF92C5
S11340B0EF92192F987F9695E92F96959695E90F8B
S11340C0FF27EA59FE4F99273327EE24FF24A7013F
S11340D0E70105900894079428F4360FE71EF81EAC
S11340E0491F511D660F771F881F991F0694A1F75A
S11340F00590079428F4E70EF81E491F561FC11DAA
S1134100770F881F991F661F0694A1F705900794DF
S113411028F4F80E491F561FC71FD11D880F991F79
S1134120661F771F0694A1F70590079420F4490FA2
S1134130561FC71FD81F990F661F771F881F069425
S1134140A9F784911095177041F0D695C7955795A6
S11341504795F794E7941A95C1F7ECE0F1E0689479
S11341601590159135916591959105907FE2739520
S1134170E118F10A430B560BC90BD009C0F7E10C47
S1134180F11E431F561FC91FD01D7EF4703311F456
S11341908A95E6CFE894015030F0080F0AF400271E
S11341A0021708F4202F2395022F7A3328F079E39D
S11341B07D932A95E9F710C07D932A9589F6069494
S11341C097956795379517951794E118F10A430B5E
S11341D0560BC90BD00998F023957E9173957A33C9
S11341E008F070E37C932013B8F77E9170617D939F
S11341F030F0839571E37D9370E32A95E1F7112400
S1134200EF90FF900F911F91CF91DF91992787FD38
S113421090950895FC010590615070400110D8F705
S1134220809590958E0F9F1F0895FB01DC018D9161
S1134230019080190110D9F3990B0895FB01DC0159
S11342404150504048F001900D920020C9F701C040
S11342501D9241505040E0F70895FC0161507040B8
S113426001900110D8F7809590958E0F9F1F0895A7
S11342707AE0979F902D879F802D910D11240895AA
S11342800F931F93CF93DF93FB01238121FD03C081
S11342908FEF9FEF2CC022FF16C0468157812481E7
S11342A035814217530744F4A081B1819D012F5FEA
S11342B03F4F318320838C93268137812F5F3F4F7B
S11342C03783268314C08B01EC01FB010084F18544
S11342D0E02D1995892BE1F6D80116968D919C91C4
S11342E01797019617969C938E931697CE01DF919C
S11342F0CF911F910F910895CF93DF93CDB7DEB780
S1134300AE014A5F5F4FFA0161917191AF018091F3
S113431071169091721660D9DF91CF9108950F9321
S11343201F93CF93DF93E0917116F091721623815E
S113433021FF1BC08C01D0E0C0E0F80181918F0106
S11343406091711670917216DB011896ED91FC91D3
S11343501997882331F01995892B79F3DFEFCFEF83
S1134360ECCF8AE01995892B19F08FEF9FEF02C0EB
S11343708D2F9C2FDF91CF911F910F9108950F9353
S11343801F93CF93DF938C01E0917116F091721615
S1134390838181FF1BC0D0E0C0E0F801849160916B
S11343A0711670917216DB011896ED91FC911997B4
S11343B0882341F01995892B11F0DFEFCFEF0F5FC0
S11343C01F4FEBCF8AE01995892B19F08FEF9FEFE0
S11343D002C08D2F9C2FDF91CF911F910F910895D3
S11343E00F931F93CF93DF93CDB7DEB72E970FB6FE
S11343F0F894DEBF0FBECDBF0E891F89888D998DBD
S113440026E02C831A83098397FF02C080E090E89A
S113441001979E838D83AE01445E5F4F6A8D7B8DD1
S1134420CE010196D9D84D815E8157FD0AC02F81F6
S11344303885421753070CF49A01F801E20FF31F71
S113444010822E960FB6F894DEBF0FBECDBFDF915B
S1134450CF911F910F9108950F931F93CF93DF93E3
S1134460CDB7DEB72E970FB6F894DEBF0FBECDBF23
S11344700E891F8986E08C831A8309838FEF9FE757
S11344809E838D83AE01465E5F4F688D798DCE012C
S11344900196A2D8EF81F885E00FF11F10822E96C5
S11344A00FB6F894DEBF0FBECDBFDF91CF911F9141
S11344B00F910895FA01AA27283051F1203181F192
S11344C0E8946F936E7F6E5F7F4F8F4F9F4FAF4F18
S11344D0B1E03ED0B4E03CD0670F781F891F9A1F2B
S11344E0A11D680F791F8A1F911DA11D6A0F711DDF
S11344F0811D911DA11D20D009F468943F912AE0EB
S1134500269F11243019305D3193DEF6CF010895D2
S1134510462F4770405D4193B3E00FD0C9F7F6CF03
S1134520462F4F70405D4A3318F0495D31FD4052CB
S1134530419302D0A9F7EACFB4E0A6959795879561
S113454077956795BA95C9F7009761057105089540
S11345509B01AC010A2E06945795479537952795EC
S1134560BA95C9F7620F731F841F951FA01D089584
S11345708F929F92AF92BF92CF92DF92EF92FF926F
S11345800F931F93CF93DF93CDB7DEB729970FB661
S1134590F894DEBF0FBECDBF6A01122FB02E2BE3FD
S11345A0201720F0FF24F394F00E02C02CE3F22E27
S11345B00F2D27E0AE014F5F5F4F54DDBC014981F1
S11345C0842F8970813031F0E1FC06C0E0FE06C022
S11345D090E205C09DE203C09BE201C090E05E2D25
S11345E0507143FF3CC0911102C083E001C084E0DC
S11345F0811718F4212F281B01C020E051110BC092
S1134600F601822F30E2882319F031938150FBCFD9
S1134610C20ED11C20E0992329F0D6019C93F60107
S113462031966F01C6010396E2FE0AC03EE4D6014C
S11346303C9341E411964C93119712963C9306C017
S11346403EE6F601308341E641833283FC01322F9A
S113465040E2332309F442C041933150FACF42FF80
S113466044C0911102C083E001C084E0811718F4B2
S1134670212F281B01C020E051110BC0F601822F0D
S113468030E2882319F031938150FBCFC20ED11C44
S113469020E0992329F0D6019C93F60131966F010D
S11346A0C6010396E2FE0BC039E4D6013C933EE416
S11346B011963C93119736E412963C9307C039E661
S11346C0F60130833EE6318336E63283FC01322F35
S11346D040E2332319F041933150FBCFFC01E20F48
S11346E0F11D10828EEF9FEFA6C021E030E0911102
S11346F002C020E030E0161617061CF4FB013196C8
S113470002C0E1E0F0E02E0F3F1FBB2021F0EB2DB3
S1134710F0E0319602C0E0E0F0E02E0F3F1FE12F01
S1134720F0E02E173F071CF4121B212F01C020E0DC
S11347308E2D887159F4F601822F30E2882319F006
S113474031938150FBCFC20ED11C20E0992329F074
S1134750D6019C93F60131966F0151110BC0F601FD
S1134760822F90E3882319F091938150FBCFC20EDE
S1134770D11C20E00F2D060F9A81342F307144FF95
S113478003C0913309F40150101624F4093018F0D1
S113479008E001C001E0AB0177FF02C040E050E057
S11347A0FB01E41BF50BA1E0B0E0AC0FBD1FEA0F69
S11347B0FB1F8EE2A82E4B01801A91080B2D10E0EE
S11347C01195019511094F3FBFEF5B0721F4D60105
S11347D0AC9211966D01641775072CF0841695063A
S11347E014F4818101C080E3415051093196D6010E
S11347F011967D014017510724F0D6018C9367016F
S1134800E2CF6417750739F4963320F4953319F41D
S1134810311101C081E3F6018083F701822F90E218
S1134820882319F091938150FBCFF701E20FF11D1A
S1134830108280E090E029960FB6F894DEBF0FBE98
S1134840CDBFDF91CF911F910F91FF90EF90DF903B
S1134850CF90BF90AF909F908F900895A8E1B0E063
S113486042E050E006C00196272F12D010C0DC01B0
S1134870CB01FC01F999FECF06C0F2BDE1BDF89A67
S1134880319600B40D9241505040B8F70895262F48
S1134890F999FECF92BD81BDF89A019700B4021632
S11348A039F01FBA20BD0FB6F894FA9AF99A0FBEE0
S10948B00895F894FFCF07
S11348B6000075162000030714B5158000000002D9
S11348C600000000EB1500000000476F696E6720CA
S11348D6746F20737572666163652E2E0D005374B2
S11348E66F7020666F7220313020730D00476F6938
S11348F66E6720646F776E2E2E0D00445333323369
S1134906315F696E697428292073746172746564F1
S11349160D0A004453333233315F696E69742829B2
S113492620636F6D706C6574650D0A0052544320E4
S113493674696D652025733A25733A25730A005206
S1134946544320646174652025732F25732F2573C2
S11349560A00636F6D6D616E645F76616C75655F89
S1134966737472696E675F706173736564203D204A
S1134976257320616E64206973202564206C6F6E34
S1134986670A00636F727265637420737472696E6A
S113499667206C656E67746820666F722073657431
S11349A674696E672074696D652068617320626539
S11349B6656E2072656365697665640074696D6504
S11349C62073656E7420746F20525443203D202555
S11349D6643A25643A25640A004552524F523A20F5
S11349E6696E636F727265637420737472696E673D
S11349F6206C656E67746820666F722073657474C4
S1134A06696E672074696D652068617320626565E7
S1134A166E207265636569766564202A2A2A206396
S1134A266C6F636B2074696D65204E4F54207365FB
S1134A3674202A2A2A00636F727265637420737461
S1134A4672696E67206C656E67746820666F722083
S1134A5673657474696E6720646174652068617334
S1134A66206265656E2072656365697665640064B7
S1134A766174652073656E7420746F2052544320EC
S1134A863D2025642F25642F25640A004552524F84
S1134A96523A20696E636F7272656374207374721E
S1134AA6696E67206C656E67746820666F72207322
S1134AB6657474696E672064617465206861732027
S1134AC66265656E207265636569766564202A2A67
S1134AD62A20636C6F636B2064617465204E4F54A7
S1134AE620736574202A2A2A007072696E745254DF
S1134AF64374656D70282920737461727465640D3E
S1134B060A0052544320416C61726D3120736574FE
S1134B1620666F722025733A25733A2573206F6ECB
S1134B262074686520257320646179206F6620747B
S1134B366865206D6F6E74680A00445333323331EE
S1134B465F696E69742829202D2052454720303725
S1134B5678202873656373292076616C75652069EE
S1134B667320004453333233315F696E69742829E4
S1134B76202D205245472030387820286D696E73E1
S1134B86292076616C75652069732000445333329D
S1134B9633315F696E69742829202D2052454720D8
S1134BA63039782028686F7572292076616C7565AE
S1134BB620697320004453333233315F696E69745C
S1134BC62829202D20524547203041782028446149
S1134BD67465292076616C75652069732000416CC3
S1134BE661726D20626974203D2025690D0A0052A8
S1134BF6544320416C61726D2031204F4E00636F27
S1134C06727265637420737472696E67206C656E64
S1134C16677468202868686D6D7373444429206638
S1134C266F722073657474696E672074696D65208C
S1134C36616E6420646179206F66206D6F6E74689E
S1134C4620686173206265656E20726563656976A6
S1134C5665640074696D6520616E64206461792001
S1134C6673656E7420746F20525443203D2025646E
S1134C763A25643A2564206F6E207468652025649D
S1134C8620646179206F6620746865206D6F6E7488
S1134C96680A004552524F523A20696E636F727227
S1134CA665637420737472696E67206C656E6774CD
S1134CB66820666F722073657474696E6720616C10
S1134CC661726D2074696D6520616E64206461741F
S1134CD66520686173206265656E20726563656927
S1134CE6766564202A2A2A20616C61726D204E4FF3
S1134CF65420736574202A2A2A00445333323331EC
S1134D065F696E69742829202D20636F6E74726F33
S1134D166C5245472076616C7565206973200025C1
S1134D2630326425303264253032645F2530326493
S1134D362530326425303264003030303030302C47
S1134D463030303030300074657374696E672025F6
S1134D5673200D0A002D2D2D2D2D206672616D5F99
S1134D6672656164416C6C28292073746172746580
S1134D7664202D2D2D2D2D0D000D0A202A2A2A20E2
S1134D864F766572666C6F772064657465637465C7
S1134D96642066726F6D2070726576696F75732014
S1134DA672756E732C2077696C6C207072696E74E0
S1134DB620616C6C206D656D6F7279202A2A2A0D2C
S1134DC60A0D002D2D2D2D2D206672616D5F7265E5
S1134DD66164416C6C282920636F6D706C65746521
S1134DE6202D2D2D2D2D0D006672616D5F7265735C
S1134DF665745772697465416464726573732829AE
S1134E0620737461727465640D0A006672616D5F65
S1134E166D656D6F72795F7265706F727428292083
S1134E26737461727465640D0A004652414D2073B1
S1134E36657175656E7469616C204164647265732D
S1134E46733A25692F33323736382062797465739D
S1134E560D0A00696E69744652414D2829207374FF
S1134E6661727465640D0A000D0A202A2A2A204DEF
S1134E76656D6F7279206F766572666C6F77212027
S1134E862A2A2A200D0A0D00074F564552464C4F32
S1134E96570A005B4552524F525D20002573202568
S1134EA673202573005B494E464F5D20005B4445E5
S1134EB64255475D20005B564552424F53455D209F
S1134EC6005B444154415D202573202573004C6FDB
S1134ED66767696E67207475726E6564204F46460F
S1134EE60D0A004C6F6767696E67206C6576656CA2
S1134EF62073657420746F204552524F520D0A0078
S1134F064C6F6767696E67206C6576656C207365A0
S1134F167420746F20494E464F0D0A004C6F676724
S1134F26696E67206C6576656C2073657420746F92
S1134F362044454255470D0A004C6F6767696E6702
S1134F46206C6576656C2073657420746F205645F5
S1134F5652424F53450D0A005B4552524F525D2053
S1134F664C6F674576656E7428293A204E6F207615
S1134F76616C6964206C6F6767696E67206C65761F
S1134F86656C2070617373656400636F6C6C656334
S1134F967453616D706C6528292066756E63746937
S1134FA66F6E20656E74657265640D0A00576174D0
S1134FB665722073616D706C696E67202D20535481
S1134FC641525445440D0A0054696D656F75743A2F
S1134FD62569732C2042616750206375746F666679
S1134FE63A25322E32667073692C2046696C7465D4
S1134FF672506D61783A25322E32667073690D0AE5
S11350060073616D706C696E6720706172616D65A5
S1135016746572730D004353565B2C25692C253237
S11350262E32662C25322E32662C25692C25752CBB
S1135036252E32665D0D0A0053616D706C6520760F
S11350466F6C756D6520636F6C6C65637465642045
S11350563D20252E3266206D6C0D0A00576174655D
S1135066722073616D706C696E67202D20434F4DFD
S1135076504C4554450D0A00656C61707365645F58
S11350867365636F6E6473206F66207072657365F3
S1135096727661746976652025690D0A00636F6C02
S11350A66C6563742073616D706C65282920667560
S11350B66E6374696F6E20636F6D706C657465647E
S11350C60D0A00494E543220747269676765726529
S11350D6640D0A00494E5437205254435F494E54D6
S11350E6207472696767657265640D0A002D2D2D3B
S11350F62D2053657474696E6773202D2D2D2D0D27
S11351060053616D706C6520766F6C756D653A2021
S11351162575206D6C0D0A00696E69745F696E747D
S1135126657272757074732829207374617274655C
S1135136640D00696E69745F696E74657272757068
S11351467473282920636C6F7365640D00636F6D37
S11351566D616E6420666F756E64203C25733E2116
S11351662121210A00636F6D6D616E645F76616C47
S113517675655F737472696E6720706173736564B5
S11351862028746F2062652073656E74206279200E
S113519666756E6374696F6E20706F696E7465727E
S11351A62920746F2066756E6374696F6E20706F44
S11351B6696E746572203D2025730A00636F6D6DF8
S11351C6616E645F76616C75655F737472696E6730
S11351D65F706173736564203D20257320616E647E
S11351E6206973202564206C6F6E67006E6F2076CD
S11351F6616C696420636F6D6D616E6420666F75A2
S11352066E6420666F722074686520636F6D6D61CD
S11352166E6420656E7465726564203C25733E0A6F
S113522600636F6D6D616E64546573742066756E8C
S11352366374696F6E207061737365642074686546
S113524620737472696E67203D2025730A00636FAC
S11352566D6D616E642076616C756520617320697D
S11352666E74203D2025640A00696E69745F70754A
S113527673685F627574746F6E7328292073746122
S1135286727465640D00696E69745F707573685F26
S1135296627574746F6E73282920636F6D706C6504
S11352A674650D00636F6D6D616E645F76616C7518
S11352B6655F737472696E675F706173736564208A
S11352C63D2025730070776D5F696E69745F504C7D
S11352D63520737461727465640D0070776D5F694F
S11352E66E69745F504C3320737461727465640D17
S11352F600656E746572696E6720736C65657020EF
S11353066D6F64650D0A0045786974696E6720736C
S11353166C656570206D6F64650D004C6564696E1F
S11353266974282920737461727465640D004C6570
S113533664696E6974282920636F6D706C65746581
S11353460D006E6F2076616C6964206C65645F6E17
S1135356756D62657220666F756E6420746F207455
S113536675726E206F6E20696E204C6564436F6E95
S113537674726F6C200D006E6F2076616C69642008
S11353866C65645F6E756D62657220666F756E64BA
S113539620746F207475726E206F6666204C656487
S11353A6436F6E74726F6C200D00696E636F727258
S11353B665637420617267756D656E7473207365B9
S11353C66E7420746F206D616E75616C4D6F6465CB
S11353D66C65642829200D0073616D706C655465D5
S11353E673742066756E6374696F6E20656E74657A
S11353F67265640D0A0054657374696E6720696E7C
S11354067075742076616C76650D0A00696E6C653C
S1135416745F76616C76655F64656E6572676973E1
S11354266528292063616C6C65640D00696E6C6582
S1135436745F76616C76655F656E657267697365C0
S113544628292063616C6C65640D00546573746966
S11354566E672070756D700D0A0053616D706C6512
S113546620636F6C6C656374696F6E20626167207C
S11354767072657373757265203D2025322E32660F
S1135486206F662025322E32660D0A0046696C743A
S11354966572207072657373757265203D202532BE
S11354A62E3266206F66206375746F666620253219
S11354B62E3266200D0A0054657374696E67206384
S11354C66F6D706C6574650D0A0020202020202005
S11354D620202020202020202020202020200053AF
S11354E674617475733A0070462025322E32662034
S11354F67073690070422025322E326620707369FB
S11355060053414D504C494E4720434F4D504C4556
S1135516544500536C656570204D6F64653A004DC3
S1135526616E75616C204D6F64653A0054657374E1
S1135536204D6F64653A0053616D706C65204D6F44
S113554664653A00436C65616E696E67204D6F64ED
S1135556653A005072696D696E67204D6F64653AED
S1135566005541525420696E707574206D6F6465E0
S1135576004652414D204552415345206D6F6465A6
S11355863A00696E76616C6964206D6F6465006DBE
S11355966F6465466C616773203D2000494E54353F
S11355A6207472696767657265640D0A0072756EA8
S11355B620627574746F6E20707265737365640D02
S11355C60A0072756E2F7374617274206D6F646550
S11355D6206F6E0D0A0072756E2F737461727420DB
S11355E66D6F6465206F66660D0A004D6F646520F5
S11355F6627574746F6E20707265737365640D0AD8
S1135606000D0A4F6E6553686F74202053746172DF
S11356167475702053657175656E63650D0A004671
S113562669726D776172652056657273696F6E2053
S11356362000302E302E31000D0A0D0A00456E74FE
S1135646657265643A20004D616E75616C206D6FFC
S113565664652073656C65637465640D0A0054653E
S11356667374206D6F64652073656C65637465641B
S11356760D0A0053616D706C6520636F6C6C656315
S113568674696F6E206D6F64652073656C656374F1
S113569665640D0A000D0A446F20796F75207761E1
S11356A66E7420746F2072756E2061667465722044
S11356B66D6F64652073657474696E67733F202823
S11356C6792F6E290D0A00436C65616E206D6F6437
S11356D6652073656C65637465640D0A00496E76AE
S11356E6616C6964206F7065726174696F6E206D98
S11356F66F64650D0A004175746F6D617469636149
S11357066C6C792072756E206166746572206D6F9B
S113571664652073657474696E67730D0A000D0AF7
S11357264D616E75616C206D6F6465204F4E202D42
S113573620456E74657220436F6D6D616E643A2008
S1135746000D0A74657374206D6F6465204F4E0DE9
S11357560073616D706C6520636F6C6C656374694E
S11357666F6E206D6F6465204F4E0D0A0073616D78
S1135776706C6520636F6C6C656374696F6E2073FF
S1135786657175656E6365207472696767657265B0
S1135796640D0A0053616D706C6520636F6C6C65F3
S11357A66374696F6E2073657175656E63652063D6
S11357B66F756C64206E6F742062652074726967FD
S11357C667657265642061732073616D706C652012
S11357D668617320616C7265616479206265656EC7
S11357E62074616B656E0D000D0A636C65616E2035
S11357F66D6F6465204F4E202D200D0A00436C65A5
S1135806616E206D6F646520737461727465640DD6
S11358160057617368207374657020256920200D14
S11358260A00576173682073746570202569202DFA
S113583620506C61636520696E6C657420696E2006
S113584620200D0A00656C61707365645F7365637F
S11358566F6E6473202569206F662025690D0A0022
S11358665761736820737461676520256920636FC7
S11358766D706C6574650D0A000D0A5072652D72A3
S1135886756E207072696D696E67206D6F64652030
S11358964F4E007072652072756E207072696D6964
S11358A66E67206D6F646520737461727465640D30
S11358B60A00697465726174696F6E2025692F32F6
S11358C630206F6620666F72206C6F6F702E2E2EDE
S11358D60D0A007068362070776D206C6F772E2E57
S11358E62E0D007068362070776D20686967682E03
S11358F62E2E0D0050726573732072756E206275BC
S113590674746F6E20746F206572617365204652DD
S1135916414D0D006672616D204552415345207319
S1135926656C65637465640D005541525420696E57
S1135936707574206D6F6465204F4E0D004578694F
S113594674205541525420696E707574206D6F64CD
S1135956650D006E6F2076616C6964206F706572E8
S11359666174696F6E206D6F64652073656C656321
S1135976746564004D6F6465666C6167733A2025CF
S1135986730D0A007473740072756E00746D700082
S11359966364700063747000626C616E6B006374A0
S11359A67300636473006361700063617300636111
S11359B66F0063616600656E64004D6F746F726498
S11359C67269766572496E697428292073746172E6
S11359D67465640D004D6F746F72647269766572D6
S11359E6496E6974282920636F6D706C6574650D42
S11359F6004D6F746F7264726976657253746F705A
S1135A062829202D20647269766572203220535429
S1135A164F50202A2A2A207468697320636F6465AC
S1135A2620697320696E636F6D706C6574652A2ACC
S1135A36200D0A00507265737375726553656E7333
S1135A466F72496E6974282920737461727465646F
S1135A560D00507265737375726553656E736F725C
S1135A66496E6974282920636F6D706C6574650DC1
S1135A76006E6F2076616C6964207072657373754D
S1135A8672652073656E736F72206E756D626572D2
S1135A962073656C656374656420696E2052656164
S1135AA664507265737375726528290D00486F6EAC
S1135AB6657977656C6C20507265737375726520B1
S1135AC673656E736F723A206465766963652069DF
S1135AD66E20636F6D6D616E64206D6F64650D007D
S1135AE6486F6E657977656C6C2050726573737553
S1135AF672652073656E736F723A207374616C6598
S1135B062064617461202D206461746120616C726B
S1135B166561647920666574636865640D00486F21
S1135B266E657977656C6C205072657373757265F2
S1135B362073656E736F723A20646961676E6F7362
S1135B4674696320636F6E646974696F6E0D0073A4
S1135B5670695F696E69745F6D6173746572282913
S1135B6620737461727465640D007370695F696E85
S1135B7669745F6D6173746572282920636F6D7033
S1135B866C6574650D00696E76616C696420756177
S1135B9672745F706F727420696E20696E69745FC7
S1135BA67573617428292C206F6E20706F727420AF
S1135BB631206F72203220706F737369626C652CAA
S1135BC6206D6F726520636F6465206E656564651C
S1135BD66420666F7220332D340D0A00696E766177
S1135BE66C696420756172745F706F72740D0A005B
S1135BF6456E7465722073616D706C6520766F6C8A
S1135C06756D6520286D6C293A20000D0A456E7461
S1135C167279203D202575206D6C0D0A005553417F
S1135C265254312064697361626C65642E20494E56
S1135C365432207472696767657265642E0D0A00B2
S1135C4655534152543120747269676765726564AD
S1135C562E20494E54322064697361626C65642E49
S1075C660D0A00001F
S9030000FC
